:020000041000EA
:1000000000B5324B212058609868022188439860DF
:10001000D860186158612E4B002199600221596106
:100020000121F02299502B49196001219960352056
:1000300000F044F80222904214D00621196600F024
:1000400034F8196E01211966002018661A6600F04E
:100050002CF8196E196E196E052000F02FF8012189
:100060000842F9D1002199601B49196000215960AB
:100070001A491B48016001219960EB211966A021F2
:10008000196600F012F800219960164914480160C1
:100090000121996001BC002800D000471248134993
:1000A000086003C880F30888084703B5996A0420EC
:1000B0000142FBD001200142F8D103BD02B5186610
:1000C0001866FFF7F2FF186E186E02BD00000240BE
:1000D000000000180000070000035F00212200005C
:1000E000F4000018222000A00001001008ED00E03C
:1000F00000000000000000000000000074B24E7A12
:1001000000200420F7010010C3010010C5010010F9
:10011000C1010010C1010010C1010010C101001097
:10012000C1010010C1010010C1010010C701001081
:10013000C1010010C1010010C9010010CB01001065
:10014000CD010010CD010010CD010010CD01001037
:10015000CD010010CD010010CD010010CD01001027
:10016000CD010010CD010010CD010010CD01001017
:10017000CD010010CD010010CD010010CD01001007
:10018000CD010010CD010010CD010010CD010010F7
:10019000CD010010CD010010CD010010CD010010E7
:1001A000CD010010CD010010CD010010CD010010D7
:1001B000CD010010CD010010CD010010CD010010C7
:1001C00000BE00BE00BE00BE00BE00BEEFF3058054
:1001D000103800BEF2EB88712C4100105041001025
:1001E0003802001090A31AE71E481F49086006C88D
:1001F00081F3088810471D480068002801D019487D
:10020000F3E70DA40ECC002902D000F012F8F9E7B4
:100210001749184A002000E001C19142FCD116495B
:100220008847164988471649884700BEFDE701C937
:1002300001C29A42FBD3704750410010C000002019
:10024000B0100020405100100000042000000420E5
:100250004051001000100420001004200000000095
:10026000704700000000000008ED00E0000000D032
:10027000B0100020981B0020312100100D04001048
:1002800029210010F8B5C04610B5064C2378002B84
:1002900007D1054B002B02D0044800E000BF01232A
:1002A000237010BD3014002000000000043D001039
:1002B000044B10B5002B03D00349044800E000BFF5
:1002C00010BDC0460000000034140020043D0010A2
:1002D000F8B5050001F0BEF8002954D0FA22002339
:1002E000920001F029FC2A4C2A4E2D1801F0B2F898
:1002F000002937D0FA220023920001F01DFC85422C
:1003000036D901200021404202F0B8FB2368002BBF
:1003100017D001F09FF8002930D0FA220023920074
:1003200001F00AFC33682268C01A904209D31A4FC0
:100330009B183878336003F017FC01223B78534058
:100340003B70D0231B065A68920312D40121134A32
:100350005B6811601B04C9D50123136001F07AF8B2
:100360000029C7D1FA21890001F0A8FB8542C8D82D
:10037000F8BD5B681B04B9D5084AEDE7FA2189008E
:1003800001F09CFBCEE7FA21890001F097FBAAE778
:10039000D80F0020801B0020951B00201017002084
:1003A000F0B5184C85B000236A46270002AE938052
:1003B000154D332200930293B380273719E06B4623
:1003C00000220121002003F0D7F80520FFF780FF6D
:1003D000330000220121002003F0CEF80520FFF7B2
:1003E00077FFBC420CD0237801345B00EA185278C6
:1003F0005B5D69460A70002BE1D06B460222E0E7A4
:1004000005B0F0BD053D0010303D0010F0B5D646FA
:100410004F464646C0B582B003F08EFB012301A9CA
:100420000B80002002F0B2FA112000F03BF9D0243A
:10043000802324069B0200220121A362112000F0E8
:1004400017F90F2000F02EF980231B02A36201226E
:1004500000210F2000F00CF92A4B002B01D000E006
:1004600000BF294B01269846284B294D9946294C17
:10047000FA27BF0001200021404202F0FFFA2B685A
:10048000002B1BD000F0E6FF002936D0FA22002313
:10049000920001F051FB43462A681B68C01A904243
:1004A0000CD39B18424613604B46187803F05CFB54
:1004B0004B4601221B7853404A4613702368002B99
:1004C0000FD1D0231B065A68920305D45B682660BF
:1004D0001B04CFD52660CBE75B681B04CAD526601A
:1004E000C6E72B682F609A46FFF75AFF22685342EF
:1004F0005341236053462B60E3E7FA21890001F062
:10050000DDFAC8E700000000801B0020951B0020DA
:10051000D80F002010170020FA22024B52001A6058
:100520007047C046D80F00206422014B1A60704704
:10053000D80F0020014B024A1A607047D80F0020E4
:10054000C409000010B502F019FA431E9841C823EF
:1005500040425B001840024B6430186010BDC0463A
:10056000D80F00207047C0460020704710B502A881
:100570000088022A00D010BD0129FCD10028FAD041
:100580001C7803F0FBFA204206D00022064B012023
:100590001A6003F0E9FAEEE7002003F0E5FAFA2228
:1005A000014B52001A60E6E7D80F00200048704760
:1005B000683E0010004870477C3E001000487047BD
:1005C000443E001070B5002822D003282DD8184BC7
:1005D0008000C558280003F0D9FA0400202813D859
:1005E00000281FD00023134EB21CE95C0133118098
:1005F00002329C42F9D8C023013464009B001C43A2
:10060000A4B23000348070BD20240028EAD109E073
:10061000C124084E064B02221968B01C01F05CFD93
:10062000A400EEE7044C034EEBE70020EBE7C046E6
:10063000DC0F00206C1400200203000010B54024E1
:10064000084A83009A181268C0005440C022224011
:10065000054CA44663441A60044B9C4660444160C8
:1006600010BDC04604C0014004D00140004001401C
:100670000B4B80009C46604400290ED100230431BE
:10068000002A00D119008022036852015940944683
:100690000C2360440B40036070470C210823EFE7F4
:1006A00004C001400123D0228340402112069362FE
:1006B0009361094A83009A181268C0005140C02211
:1006C0000A4006498C4663441A60054B9C46052344
:1006D000604443607047C04604C0014004D00140FC
:1006E000004001408023DB051868000F7047C046BA
:1006F0000FB400B5084883B001F076FE049B002BD0
:1007000007D005A91800019101F0F4FC034801F09D
:100710006BFE012001F006FDC03E0010D03E00102F
:1007200070B5EFF3108C72B60D4D2B68002BFCD01A
:10073000BFF35F8F0724CB08C618C05C01230C40B1
:10074000A3401C000440034207D103433370BFF3AE
:100750005F8F2C608CF3108870BD1000FFF7C8FF0E
:100760002C0100D0F8B54746CE46884680B5EFF359
:10077000108C72B6214D2C68002CFCD0BFF35F8F1B
:100780009A422CD8D4080727055D06190124174082
:10079000BC402C421FD007210127894609E0D4081C
:1007A000055D06194C4639001440A1400C00294251
:1007B00011D001329342F2D201204042BFF35F8F49
:1007C00000220E4B1A608CF3108800280FDBC0BC8F
:1007D000B946B046F8BD2C4310003470EEE7BFF3C5
:1007E0005F8F00232B608CF310880120404243462A
:1007F000002BECD00898FFF77BFFC0462C0100D0FF
:10080000044A1078431CDBB2172B00D91023137055
:100810007047C046EC0F002000B5054B83B00100C7
:10082000009318221F230348FFF79CFF03B000BD6D
:10083000D43E00101C1700200021044B044ABFF3D3
:100840005F8F02C39342FAD17047C046000100D0C7
:10085000800100D0054B064A1360064A13605360BE
:100860009360D3601361536193617047808080808F
:1008700000E400E004E400E01F2318401E3B834036
:10088000002905D0C021044A490053501360704725
:10089000802201498B50FAE700E100E070B50D00BD
:1008A000EFF3108672B60F4A1368002BFCD0BFF32B
:1008B0005F8F0D4B10309B6884001B590B4A93428D
:1008C00003D09D4201D001F01BF8074B9B681D51DE
:1008D000BFF35F8FBFF35F8F0022024B1A6086F376
:1008E000108870BD240100D000ED00E0CD010010A3
:1008F000F0B557464E46DE464546E0B585B00600A3
:1009000002911700EFF3108B72B6674A1368002B41
:10091000FCD0BFF35F8F0025644B5D579A46002DD6
:1009200000DAA4E06B00624C03935B199B009846CD
:10093000A146C1444B4652469B79103613705D4B1D
:10094000B2009B68019299580B1B2F2B34D95A4B3C
:10095000994200D0A4E0039B584A9C46584B6544FA
:10096000AD006353434602336519E418554B01212A
:10097000043B1B1B1B055B0D13436B80524BEF713C
:10098000AB80FF23AB71029BAB604B460B4319005E
:10099000484B019A9B689950BFF35F8FBFF35F8FFD
:1009A0000022414B1A608BF3108805B0F0BCBB46A7
:1009B000B246A946A046F0BD01200A008243D37981
:1009C000BB422FD845464E46130040491B1B5B4196
:1009D0005943090D3A4B63533A4B02356519043BB1
:1009E0005B1B1B05354D5B0D2B4373800426B44602
:1009F000E0444444131F1B1B4C46A17102991B0584
:100A0000A16049465B0D2B43A380314BE771014345
:100A10001360BDE75800C01880002018C679BE4298
:100A20002BD902000623D356002BF3DA101D824681
:100A30002848804604267642B446E14450464E4655
:100A4000361A3005400D824656461C4895710643BD
:100A50009680039A944665441D4AAD00641922604D
:100A60004246A371029BA280E771A36090E700F069
:100A700047FF002553465D5754E7101D8246908876
:100A80004005001584464046D4446646043020188C
:100A9000301AE0260005400D360230438046C9E793
:100AA00000F02EFF57E7C046240100D0941B002021
:100AB000F00F002000ED00E0CD01001000E0FFFF8E
:100AC00000A1FFFF2010002001BDFFFFAAAA000027
:100AD0000148804701BD0000F0B5DE4657464E464E
:100AE0004546E0B50C0083B0EFF3108972B65F4A5B
:100AF0001368002BFCD0BFF35F8F5D4B9A68030037
:100B000010339F00D5595B4A904695423DD0A5428F
:100B10004ED0594EAA1B2F2A37D8584A93461268EE
:100B20009446012261469246824011401F221040A5
:100B30005246824092460191802251465846815049
:100B4000BFF35F8FEFF305829346002A32D1012372
:100B50002A009A439068844208D17CE04B005B18DD
:100B60009B00F318986884422ED01A000621515633
:100B70000029F3DA84424DD0019B002B1FD0C02204
:100B800051463E4B520099501960394B9B68DD51DC
:100B9000BFF35F8FBFF35F8F0022344B1A6089F37E
:100BA000108803B0F0BCBB46B246A946A046F0BDD3
:100BB0001500EAE79342CAD000F0A2FEC7E78023FF
:100BC00051462E4AD150E0E706215956002922DB32
:100BD0004A005018800034188046A0689860E07978
:100BE000D871062020569871002825DBA488F01AB9
:100BF0006405241544440019E0240005400D240236
:100C00002043988052181E4B9200B6181A7819701B
:100C1000B271B1E71300594600290FD1FF3191712C
:100C20001849918016490A789A71174A9B1B5B41B3
:100C30005A43120D0A709FE71448E2E7144A154917
:100C4000D21A083A5002400D0143998012495208C5
:100C50000A43DA8090E70621515613000029B7DADB
:100C60005A46002AEAD14546DCE7C046240100D0B6
:100C700000ED00E0CD010010F00F002000E100E0E9
:100C8000941B002001BDFFFFAAAA000001BD0000C7
:100C90002A10002000F0FFFF00F8FFFF70B50124CC
:100CA0000443EFF30581EFF3108C72B6214A136809
:100CB000002BFCD0BFF35F8F1F4B05001F4AED1ABE
:100CC0006D416A43120D1E4D8900AE6852B27658CE
:100CD000A6421CD00621595691421CD012215956C9
:100CE000914222D01E215956914220D02A21595694
:100CF0000324914210D0134B19781A708171BFF3FD
:100D00005F8F00220B4B1A608CF3108870BDAB68AC
:100D10000D4C5C50EFE700246100091989005B1855
:100D2000FF21997109499980E5E70124F4E702243C
:100D3000F2E7C046240100D0F00F0020AAAA00006C
:100D400000ED00E0941B0020CD01001001BDFFFF6D
:100D5000024B9C46614489000160704740000034AA
:100D6000F8B5134D134E2C00FF27B5421ED2236851
:100D7000002B0FD0FFF744FD01002800FFF7E8FF2C
:100D8000A780BFF35F8F0834B4420FD223682500D9
:100D9000002BEFD1FFF734FD01002800FFF7D8FF4B
:100DA0002771BFF35F8F0834B442EFD3F8BDC0465C
:100DB000A8100020B010002010B50400FFF720FD9F
:100DC00001002000FFF7C4FFFF232371BFF35F8FF3
:100DD00010BDC04610B504000120FFF71DFD044BF7
:100DE0009C46604480002060BFF35F8F10BDC0460A
:100DF000400000340A4B1968EFF3108072B60A689D
:100E0000002AFCD0BFF35F8F1B68BFF35F8F002207
:100E10001A6080F3108840BF002000217047C04650
:100E20007C1B0020F0B5DE4657464E464546E0B5F1
:100E300085B0EFF30582032313409A00110003925B
:100E4000B64A5258904601229A409146B44B1A60D5
:100E50004B46B4484363434608229B5E9A46002BA8
:100E60003DDA43469B881BB2002B00DBA1E04346E2
:100E70009B79002B00D0F3E0434608241C5F002C34
:100E800023DB42465269630094461B19DB0063442E
:100E90009C68DD68631C00D10FE1A2480399844679
:100EA0006144826A0B69A61A9B1A9E4215D34A4670
:100EB000036A1A4211D09B4800F0C4FA241A8D41EB
:100EC000002D02DCC4D1002CC2D040BF05B0F0BC64
:100ED000BB46B246A946A046F0BD0C61EBE74246D0
:100EE00052695B0093465344DB009B445B469E681B
:100EF000DF6800F0A7FA801BB9410029B1DB002FA1
:100F000000DAE5E05B46884A1B69934200D1D8E0ED
:100F100041465A460820085E5288000410435A464B
:100F20005169984704000D0023002B4300D1CFE006
:100F3000002D00DBE8E0361BAF4134003D005B468E
:100F40009C60DD600021595E002900DA89E7434694
:100F50005B6922009C462B0048004018C00060449A
:100F60008668C768921BBB41002B00DA79E74346CD
:100F7000664602000094019519810CE07B00DB19A4
:100F8000DB00F318009801999C68DD68001BA941FB
:100F9000002904DB1A000023D75E002FEEDA5B463F
:100FA0001F805346138043469B881BB2002B00DAF8
:100FB0005DE743461A69EFF3108172B61368002BA0
:100FC000FCD0BFF35F8F43469B8842461BB29A46D4
:100FD00001235B4293801369BFF35F8F00221A6085
:100FE00081F310885346002B00DA40E743465B69E3
:100FF0009C46082343449B4653465F004346574460
:10100000FF0008229A5E67445E46BC68FD68002ABD
:1010100019DB3B000094019567469C4604E01E00E6
:101020000023F25E002A0BDB0098019953009B1805
:10103000DB00FB189C68DD68001BA9410029EEDA83
:101040006346BC461F005346338000217B5E3A80D6
:101050009A46002BD0DA43469B79002B00D10BE750
:10106000002342469371434646460821595E08369E
:101070004B1C00D129E747468C46556902E0060023
:101080004B1C17D04B005B18DB00E8180A00E95E28
:1010900043881BB2002BF2DA01235B42DC1783602A
:1010A000C4606245ECD031803B89944603803A812C
:1010B0004B1CE7D1B8466446E1E66B1C00D0ECE679
:1010C000F9E65B465C69200023699847002821D136
:1010D0005B4642461B8813811269EFF3108372B698
:1010E00011680029FCD0BFF35F8F424659465288F1
:1010F0000A804246514651801269BFF35F8F00213A
:10110000116083F31088ACE6064800F09BF92418C0
:101110004D4114E76568246806E7C046601B00205F
:101120003C70054000400540250E001070B52E4C67
:101130002569002D04D00A212C48FFF709FE70BD57
:101140002B4E0321300000F073F9E660FFF758FBE7
:10115000284B03229C46D02322701B061B680121CA
:101160006370254B6044A3600F2380002061022040
:10117000638063694942A180198002311986473131
:101180001D83585218315A5275325C3999521832AF
:101190000131995218320131995218320131995264
:1011A000083518329D5202311832995218320131E5
:1011B000995218320131995218320131995218322C
:1011C000013199521832013199520C4B0C49DC60B3
:1011D00001303562FFF762FB01210320FFF74CFB72
:1011E000084B1D60A7E7C046381000207C1B00207C
:1011F0000040054040000034FFFF1000601B00204D
:10120000250E00103860054070B5C646010000B5D7
:101210000469EFF3108C72B620680028FCD0BFF38D
:101220005F8F02200D5E48696C0080466419E400FF
:101230004444002D01DB208848800869BFF35F8F9C
:10124000002606608CF31088002D30DBE360638895
:101250000598013320615B0406985B0CA260606115
:101260001A1C002B21D090B22B04628018430A690B
:10127000EFF3108672B61368002BFCD0BFF35F8FBC
:101280008B8823808D800B69BFF35F8F00221A60EB
:1012900086F310880B7801329A40CB6805498C465A
:1012A00063441A6040BCB04670BD0122DBE70120F8
:1012B0004042F7E73C20000010B543890A149342EE
:1012C00033DD53009B184269DB0094460469634494
:1012D000EFF3108C72B62268002AFCD0BFF35F8F48
:1012E0005A88090494B2090C8A4208D00369BFF3F2
:1012F0005F8F00221A608CF31088002010BD8022BE
:10130000120214435C80012302698371BFF35F8F73
:10131000002111608CF31088054902788C469340B7
:10132000C268012062441360E8E70020E6E7C04697
:101330003C200000F0B5CE46474680B504000D00C5
:1013400083B0EFF30587002F0DD0364A0020536A93
:101350008B4203D3926A0130A24250D303B0C0BC87
:10136000B946B046F0BD304B9846DB6899464346D7
:1013700048461E7800F066F80B0049460200043625
:10138000B600715820008E1A2900801A99418F42A8
:1013900011DC0ED020BF234A0020536AAB42DDD3BC
:1013A000926A0130A242D9D2E81A421E9041C0B2DC
:1013B000D4E78642EED900F04DF822002B00121A35
:1013C0008B41002B20DB00230193184B220000935C
:1013D00040462B00FFF718FF011E15DD114B2E00B4
:1013E0005A6A95421CD89B6AA34217D34046FFF71E
:1013F00063FF0C4A0020536A9E42AFD8D0E7581AC8
:10140000421E9041C0B2A9E7064A0020536AAB428F
:10141000A4D3926A0120A242A0D2C5E79542E5D1A9
:1014200020BFE3E70040054038100020F50D001014
:1014300010B5024A0248FFF773F910BDF03E0010E4
:10144000201700200300416A0A00986A596A8A42FC
:10145000FAD17047034B596A0A00986A596A914257
:10146000FAD170470040054070B504000D00124AE3
:10147000536A1900966A536A8B42FAD130001900F8
:1014800024184D41AB4211D80ED02B000A494A6AAC
:101490009A42FCD307D1084A02E0516A994202D12C
:1014A000916AA142F9D370BDA642EED9012301246D
:1014B0006442E5175B42E9E700400540F8B50400E7
:1014C00006200D0000F076F9002842D0364B37494F
:1014D000E21853425A418023DB039C469205344B69
:1014E00062441A60334B1A6010000B689843FBD1BA
:1014F0002D4B8021E3185A4253412F4A5B0049008B
:101500009952062000F056F92900C00000F0D6FAE2
:101510000130C3091ED1402701226262A362266BFB
:10152000F30722D4E36A254B0620E51800232B603D
:10153000266300F03FF93900800000F0BFFA702206
:10154000E36A5A407E2313402B601D4B2363032321
:10155000A364F8BD1B4A93421ED900231A4A1B4FAD
:101560006262A362266BF307DCD5194B144AE318B9
:101570001A60656AA26A0620AD01AD1800F01AF97A
:10158000144900F09BFAAD020100280000F096FA21
:101590000021FFF769FFC5E74006800E9F011A0092
:1015A0003F180300B9E7C0460080FCBF08C00040F8
:1015B00000E0004000F00040841B00202C100000E0
:1015C00001030000FEFF0000FFFF0000C0FF3F001E
:1015D000303000004E0E0000F8B5DE464E4657464D
:1015E0004546E0B58B4605000A991800160000F044
:1015F00065FA0A9B6C001F02324B64199C46A400DA
:101600006444636881469F4200D967602B1FDBB248
:101610009846012B30D9C02380229B01E318120188
:101620001A60294BAD0059599A4600291BD12268EE
:1016300076017240E0268023164042465B01E318A3
:101640001E60012A30D9802380229B01E3181201F9
:101650001A6053464A4667605A51F0BCBB46B246D0
:10166000A946A046F8BD586900F028FA431C580066
:10167000C0180338FDD2DAE75B46012BCBD1C0237B
:1016800003229B01E3181A60023AA3681A42FCD0B5
:10169000E0232268760156401E4080230A4A5B01FF
:1016A0009246E3181E60AD005A462168514003225D
:1016B0000A401A6001225B469A40A3681A42FCD095
:1016C000C1E7C0460080004024170020F0B5464620
:1016D0004F46D646C0B51F00344B44009C462418E4
:1016E000A4006444636888461600FF2B02D8802358
:1016F0005B006360031FDBB29A46012B30D9C02325
:1017000080229B01E31812011A60294B8500595968
:10171000994600291BD1226876017240E026802379
:10172000164052465B01E3181E60012A30D980231F
:1017300080229B01E31812011A6080235B00636022
:101740004B465F51E0BCBA46B146A846F0BD586969
:1017500000F0B4F9431C5800C0180338FDD2DAE792
:101760004346012BCBD1C02303229B01E3181A600F
:10177000023AA3681A42FCD0E02322687601564060
:101780001E4080230A4A5B019146E3181E608500D3
:1017900042462168514003220A401A600123424612
:1017A0009340A2681342FCD0C1E7C04600800040CD
:1017B00024170020014B8000C058704724170020D8
:1017C000F8B5040020481D0017000E0000F076F95F
:1017D0000100380000F072F9069B29041B0319432D
:1017E0002368002B1EDB194B194DE21853425A4156
:1017F00080235B019C461203164B62441A60164B11
:101800001A6017002B689F43FBD1144B2660E21827
:101810002123A06013602368002BFCDA0823E16019
:101820001360F8BD3F2322681340B342DBD1A368A5
:101830001B051B0D8342D6D1EE22E368D202134072
:101840008B42D0D1EDE7C046001BB7000040FDBF82
:1018500008C0004000E0004000F0004004300000FC
:101860008023024A9B000B43D362704700800540EF
:10187000142310B50100188804331B88984710BD45
:10188000162310B50100188802331B88984710BD35
:10189000F8B54746CE4680B50F1E19D01423994699
:1018A000043304000025012698464B461888434619
:1018B00021681B88984701C4431E98410135404266
:1018C0000640AF42F1D13000C0BCB946B046F8BDC9
:1018D0000126F8E7AA23064A1B0113608D235B004B
:1018E000D3600449044B19605368002BFCDA70473D
:1018F0000040024000B0FA00006002407047C0465D
:1019000010B50148FEF7F4FE143F001070B5074D06
:10191000074EB54209D20024013E761BB60808CD19
:10192000984723000134B342F9D170BDC03C001088
:10193000FC3C0010054B064A06491A60064A074B54
:101940001A6010000B689843FBD1704700E000401C
:10195000BFCDFBFE08C00040FE7F3C0000F0004011
:10196000044BDB6C002B03D18022034BD2021A60A4
:101970007047C046000011504C201150044A054BDE
:101980001A60054A1368DB018033FBD17047C046FB
:10199000FFFFFF0100F0004008C000404022034B61
:1019A0009A675A671A67DA667047C04600F00140C6
:1019B00010B5FEF741FF10BD70B5044D044C280072
:1019C000C022A16800F088FBA56070BD0000002067
:1019D00000ED00E0002310B5294C82B0A367FFF7AB
:1019E00079FF0122274B1A60636C012BFCD1032283
:1019F000254B1A60224A936B012BFCD101330093D3
:101A00000121224A22480433FFF7DAFE052301218F
:101A10000093204A2048FFF7D3FE00220221042031
:101A20001E4BFFF753FE0022012105201C4BFFF740
:101A30004DFE0022002107201A4BFFF747FE00222F
:101A400000210820174BFFF741FE8023DB000093A5
:101A5000002200210920134BFFF7BEFD0022104B8E
:101A600000210620FFF732FE0420FFF7A3FE0E49F7
:101A700000F024F801000020FFF7F2FE02B010BDD4
:101A8000008000403CB0004030B00040002F68595A
:101A900000800240008C864700C00240001BB70057
:101AA00040597307006CDC0240420F0001480421DA
:101AB000014B18475010002091180010114A936FE5
:101AC0009B0813D210665166002905D0FFE7FFE797
:101AD000FFE7516F106F704704B5002801D0002058
:101AE000C04302F09DF8002104BDC046F0B5146E5D
:101AF000556E576F166FFFF7E5FF1466556657670B
:101B00001667F0BD000000D094464A4A926F9208D2
:101B1000624601D228E0C046F0B5464E346E756E7E
:101B2000776F366F00F020F89446424A1466556687
:101B3000576716676246F0BD94463E4A926F920818
:101B4000624601D254E0C046F0B53A4E346E756E2E
:101B5000776F366F00F04CF89446364A1466556637
:101B6000576716676246F0BD002B24DB11D00029B1
:101B70003EDA00B5C943404200D1013100F038F8E7
:101B8000C943404200D10131DB43524200D101330D
:101B900000BD002AEBD1002801D1002905D000208A
:101BA000C90FC90701D1C043410800B502F030F8A0
:101BB0000022002300BD00B500290ADBDB435242AE
:101BC00000D1013300F014F8C943404200D1013183
:101BD00000BDC943404200D10131DB43524200D134
:101BE000013300F005F8DB43524200D1013300BD60
:101BF000002923D1002B18D1002A0CD0BC460D4F50
:101C000038667A6600210023FFE7FFE7FFE77A6F77
:101C1000386F67467047002801D00748010000B5BB
:101C200001F0F6FF0022002300BD02000B0000209F
:101C300000217047000000D0FFFFFFFF002B00D005
:101C4000BFE0130C28D1002AE7D080B4114F3966C9
:101C50007A66FFE7FFE730B4040C7B6F396F1B0433
:101C600023433B667A66FFE7FFE7FFE7C04684B29F
:101C70007B6F3D6F1B0423433B667A66FFE7FFE7FC
:101C8000C04600232C042D0C7A6F386F001969416F
:101C9000B0BC7047000000D0F0B594460025140E8B
:101CA00001D112020835140F01D112010435940F2D
:101CB00001D192000235D40F01D152000135D40B6D
:101CC0000134254F7C66254C3C660E0C93B2FFE731
:101CD000FFE7FFE73C6F6643360C7703BE4673436E
:101CE000DF0B5B04C01AB941130C7343DB18C91A2C
:101CF000CE086643360CB64493B273431F0F1B01E4
:101D0000C01AB941130C73431F0B1B05C01AB9410C
:101D1000860D8F023E436643360C092D24DB520AA2
:101D20007243801A7703460A6643360C16235B1B00
:101D3000DE40DF40BF1964466643821B70460435AF
:101D400006330100D940A840C01900D30131A24296
:101D500006D20023F0BD0000000000D0FFFFFFFF0F
:101D6000121B0130F3D3F1E709277F1BFE406446C5
:101D7000A2B27243801A00D20139220C7243130CB2
:101D80001204821A99410B00704604351337010082
:101D9000F940A840801900D30131002B02D1A242A2
:101DA0000AD2F0BD013000D30131121BFAD2013B3F
:101DB000F8D1A24200D2F0BD013000D30131121B94
:101DC000F7E7F0B51C0C00D080E00CB400251C0A2D
:101DD00004D11B02160E3343120208351C0B04D12A
:101DE0001B01160F3343120104359C0B04D19B00D9
:101DF000960F334392000235DC0B02D192185B41FF
:101E000001351C00971864410134464F7C66464CEE
:101E10003C660E0CFFE7FFE7FFE7C0463C6F6643FA
:101E2000360C7703BE4697B27743C01B00D2013908
:101E3000C01B00D201399FB27743C91BC91B170CC5
:101E400077437E04FF0B801BB941CE086643360CF6
:101E50000C2D33DBB644120B1F053A431B0B97B214
:101E60007743C01B00D201399FB27743C91B170CBF
:101E700077433E043F0C801BB941860D8F023E43E1
:101E8000664329277F1BFE400C3D7746AF40BF19B4
:101E900030BCA2B2ABB272437343801A9941220C98
:101EA0007243130C1204801A994102000B0001378F
:101EB000001BA941F9D2781E0021F0BD0C277F1B21
:101EC000FE4077467F0BAF40FF19E0E700245D1C22
:101ED00007D0144F7D663966FFE7FFE7FFE7FFE7AE
:101EE0003C6F95B29EB265436643401BB141150CF1
:101EF0001E0C6543664336042F0C3E432D04401BE5
:101F0000B141994204D202000B0020000021F0BD33
:101F100001D19042F7D3801A994101349942F2D30A
:101F2000F6E70000000000D0FFFFFFFF132370B5AD
:101F30001D78012D19D014DD1E48FFF7A1FC060005
:101F40001D48FFF79DFC1D4C80223100200000F051
:101F5000C3F8022D06D01A48FFF78AFC194B186007
:101F600070BD164C184BA364F5E7174B134C236058
:101F70006360A360E36023616361A361E361236243
:101F80006362A362E36223636363A363E363236423
:101F90006364A364E36423656365A365E365236603
:101FA0006366A366E36623676367A367E367A36467
:101FB000D1E7C046534400005346000030120020D1
:101FC0004C330000781B0020CD1F001007B5604681
:101FD00001880A0A0230DF2AFAD1C9B2820804D382
:101FE000028840880004104300E00068014A505015
:101FF000039007BD3012002051434343C9188C465B
:10200000110C83B24B4310B4040C614392B280B202
:10201000504362431C041B0C001910BC59411304AB
:10202000120CC0185141614470470000132310B5D1
:1020300012481C78FFF724FC0100012C0AD003DDB4
:1020400080220F4800F048F80E48FFF711FC0E4BB5
:10205000186010BD0A4C5422200000F03DF80B4BD4
:102060006365A365E36523666366A366E36623672A
:102070006367A367E3672362E361E5E75346000014
:10208000301300204C330000781B002091200010FA
:1020900007B5604601880A0A0230DF2AFAD1C9B2C0
:1020A000820804D3028840880004104300E00068DE
:1020B000014A5050039007BD30130020014804210D
:1020C000014B18476010002091180010014B1B684D
:1020D0001847000060100020014B5B6818470000A3
:1020E0006010002010B5002800D110BD00F030F9BC
:1020F000FBE7C04610B5094A0300146884B0002C01
:1021000008D0012200910648524203A9A0470120AD
:1021100004B010BD00F068F90020F9E7581B00205A
:10212000E520001000BEFDE710B5FFF7FBFFC0463D
:1021300070B5FFF7EBFB074D074EB54209D20024FF
:10214000013E761BB60808CD984723000134B34200
:10215000F9D170BDFC3C0010043D0010030010B527
:10216000080011001B68984710BDC046F0B54646F0
:102170004F46D646C0B5437D80460E001700002B63
:1021800046D0002A3FDD4B1E9946244B01250024F2
:1021900000209A460DE04B461B5D0D3B5A425341D1
:1021A000325DDBB20A2A0BD02B00013401359F428D
:1021B0001ADD002CEFD14346325D1B7D0A2AF3D194
:1021C000002BF1D1A04204DA4346211A1B683018D3
:1021D0009847434650461B6802219847013428001F
:1021E0002B0001359F42E4DC874204DD4346391A67
:1021F0001B6830189847F619013E33780D3B5A4258
:10220000534142461375E0BCBA46B146A846F0BDFC
:102210000368110030009847F5E7C046BC3F001046
:10222000F0B5DE4657464E464546E0B585B0170048
:102230001C0006000D00FFF70DF90023314A1218AB
:102240004B41002B59DB304908008A4601F000FD64
:1022500001906B1C03D1300001F098FC0500002CAC
:1022600026D12A4B98462A4B1C68002C15D0002FEB
:1022700021D1284F02E02469002C0ED02368002BC6
:10228000F9D03B68002B01D0A342F4D120002A00F2
:102290003100C0472469002CF0D1019B002B28D1CC
:1022A000280005B0F0BCBB46B246A946A046F0BD2A
:1022B000194B9846D7E7174B994602ABDF1D0A2307
:1022C0009B4602E02469002CE7D02368002BF9D05C
:1022D0004B461B68002B01D0A342F3D12A003100EA
:1022E0002000C0475B460122390020003B70C047F8
:1022F000E8E7504601F084FCD2E70122074B524246
:10230000A1E7C04640420F00A81000205D21001048
:102310004C170020541700206D210010FFFFFF7F95
:102320000A4A1368002B05D10CE01A001B69103211
:10233000002B07D09842F8D1002902D1036913601D
:10234000016170470029FCD01060FAE74C170020AB
:10235000F0B5CE46474680B583B06B460600DD1D1E
:102360002870FFF777F800231A4A12184B41002B08
:102370002BDB19490800884601F06AFC174B81469F
:102380001C68002C14D0164F02E02469002C0FD0DA
:102390002368002BF9D03B68002B01D0A342F4D175
:1023A000200001222900FFF7E1FE2469002CEFD173
:1023B0004B46002B05D1300003B0C0BCB946B04637
:1023C000F0BD404601F01CFCF5E70122054B5242EE
:1023D000CFE7C04640420F00A81000204C17002055
:1023E00054170020FFFFFF7F70B5040001F0CEFB03
:1023F00001230100050001222000FFF711FF084B17
:102400001C68002C06D06368002B05D0984724690F
:10241000002CF8D1280070BD2469002CF3D1F9E715
:102420004C170020F0B50D1E15DD0E4B0D271A6858
:102430000D4B4519D31859424B410C495B005E5E68
:1024400020210478A64207D093691942FCD10130BB
:102450001460A842F5D1F0BD93691942FCD1176010
:10246000F2E7C0468C1B00200080FCBF841B0020CC
:1024700030B504000D1E24DD002010211A4B013C54
:102480001A689369194217D1013093691942FCD136
:10249000136823548542F4D1144B1B68002B0AD0D7
:1024A00050239363516B183B0B4011498C46624497
:1024B0001360002814D030BD0C4B1B68002BEFD1EB
:1024C000F7E70A4B1B68002B0AD05022064B1B680B
:1024D0009A63596B183A0A4005498C4663441A605E
:1024E00003204042E7E7C0468C1B00201417002061
:1024F00034100000064B10B51B68002B06D00021DD
:10250000044A12689163044A1068984710BDC04697
:10251000141700208C1B0020181700200822034BE2
:1025200019688B691A42FCD17047C0468C1B002089
:1025300070B51B4E1B4B32680500D31858424341FF
:1025400014331C00002D04D0174B1A68002A11D038
:1025500070BD154E3368002BFAD000212000956322
:10256000FEF78AF920001149FEF7B6FA104B3560E4
:102570001D60EDE71D600E4B200019600B49FEF752
:102580008DF901212000FEF777F9502233689A6314
:10259000596B183A0A4007498C4663441A60D7E7DA
:1025A0008C1B00200080FCBF14170020F5240010B5
:1025B000181700203410000070B50C4E0D001C00E0
:1025C0003060002A03DB02211000FEF737F8002CF0
:1025D00003DB02212000FEF731F829003068FEF706
:1025E0006DFF01210248FFF79BFE70BD8C1B002090
:1025F0007010002010B5024800F004F810BDC0466D
:10260000701B002030B5002589B00400092200218C
:1026100001A80095FFF75AFD0922002105A804959D
:10262000FFF754FD4B236A466846137004A90D2238
:1026300001F0DEFA1521082220006944FFF74CFD65
:1026400009B030BDF8B500F045F90C23194DFF2253
:10265000AB6705201849FEF74BF9184C40220021C2
:102660002000FFF733FD4027002301262121144AD3
:1026700066702783A260136063545F3161844539BB
:102680006354104A10496360E2602787A1620B60BF
:102690006362E26201F0D4FA80239B052E64EB644E
:1026A00090230A4A0120EA508022094B5202DA6440
:1026B000F8BDC04600001150A504002058170020A6
:1026C00084001050000110508000105010D0010004
:1026D0000020115010B501210520FEF7CDF810BDE6
:1026E00010B500220021024800F014F910BDC046C8
:1026F00078170020044B1970002904D08021902302
:10270000024A8902D1507047911B002000201150CD
:102710000B785B0602D14B78052B00D070478A7886
:10272000014B1A60FAE7C04600001150F0B5C646EA
:10273000C87800B58007830F1800012B61D08F780F
:102740000C794B797F211B02394023434E00FC0951
:10275000334D32195201AA189770012767405770FC
:1027600000275B055B0DD7701383D076B846CA008F
:10277000012C32D02B4FBC468F016244BC46AC4486
:102780006746BA6047461760002932D0264AC9001A
:1027900090466246414451603F223F3393430228B2
:1027A00038D0224937190A687F01D3180B602049B5
:1027B000EF19FA608B422FD8341964012D19EB7E82
:1027C0001C499B064A4013438022012012061343F2
:1027D0006A68136080BCB846F0BD174FBC468F01D5
:1027E0006244BC46AC446746BA624746176000295B
:1027F00009D1002364012D196B60104B0120EB609F
:10280000E8E70020E6E70B4AC900904662464144EB
:102810005162C1E75B00C4E7FFF772F8FA68CBE7E3
:102820005817002084001050040010505C1B00203A
:10283000FF0F105000001050800010500001105089
:1028400010B501F0FDF910BD10B57F200C0020403F
:102850004000E409110000191A00034B4001C018A0
:1028600000F058F8012010BD581700207F221300F7
:1028700010B50B400A420BD0C909802258004018FD
:102880000649400140181201002101F001FA10BD73
:1028900002220348C909521A8266EEE7581700203F
:1028A000002011507F22100010B508400A4200D1CC
:1028B00010BD0023C9094000401804494001081810
:1028C00000220349C37001F0E3F9F1E75817002033
:1028D000FFF7FFFF80220A4B520410B51A60094B24
:1028E00009491A6010000B689843FBD1802200212F
:1028F00052010648FFF7EAFB0922054B5A6710BD53
:1029000000E0004000F0004008C00040000010500F
:102910000000115070B5837E04000D001600002BDE
:1029200017D10023E38201332000A682A37625611C
:1029300001F0BEF9002804D080219023084A8902C2
:10294000D150200001F094F9002805D0012323770D
:1029500070BD01F095F9E4E7200001F081F9F7E797
:1029600000201150002070477047C0467047C04695
:10297000002070470020704700207047024B5878B5
:10298000431E9841C0B27047F4140020F0B546468B
:102990004F46D646C0B52E4B814698461B780E0052
:1029A0000124FF2B40D100293DD000215422294889
:1029B000FFF78CFB0022284C284B20001A70FEF7F2
:1029C000FBF9274B1C60274C20001430FEF702FA5D
:1029D000200001F091F8244B244D1C60244B002B67
:1029E00004D0280000E000BF224B1860224A0024D7
:1029F00092462B781F4F0EE03A6863019446634479
:102A0000002B10D05B68002B0DD0984701342B7839
:102A1000E4B2A3420ED39C42EED3E31A5B015344CB
:102A20005B68002BF1D100242000E0BCBA46B1461F
:102A3000A846F0BD43464A46310048461A70FFF7A3
:102A400001FE041EEFD04846FFF744FEECE7C04607
:102A5000A4100020F4140020EC140020921B00208D
:102A600048150020881000204C150020901B0020E5
:102A7000000000004C140020C4400010F0B5DE46F9
:102A800057464E464546E0B5BC4B89B01B78FF2BF8
:102A900000D124E1BA4D05AC2E687269EFF31081C4
:102AA00072B61368002BFCD0BFF35F8FB1613000AA
:102AB000210000F08DFF7269B369BFF35F8F0021C1
:102AC000116083F31088002800D108E16378082B97
:102AD000E2D8AC4A9B00D3589F466368002BDBD0FA
:102AE000A0689847D8E77F232179A74E0B4058006C
:102AF000CA093618B6183200012730321079B843A7
:102B0000107110790337B8431071002B00D1EFE03A
:102B10009E4A337D1278934200D3DEE09C4A5B01EB
:102B20001268D318002B00D1D9E09E696279207811
:102B3000A368B047B0E7974A1378002B00D1CEE0E6
:102B40001378013BDBB213701378002BA4D1012260
:102B50008D4B01201B788C4913438B4A8A4E13708E
:102B60003423D25C8243CA54CA5C04218A43F2549F
:102B70000133F25C8243F254F25C00208A43F25447
:102B8000267800F067FC602223791A40602A0DD075
:102B9000402A00D1B4E0DB06DB0E012B00D101E1BD
:102BA000022B00D1C6E0002B00D1B5E02078002137
:102BB000FFF75CFE80212078FFF758FE6CE7724E2D
:102BC0003378DB0700D467E7FDF7BCFC64E76E4BA6
:102BD000DB78DB0700D45FE76068FFF7C7FE5BE7E1
:102BE000694E3378DB0700D456E730780007C00F12
:102BF000FDF7A0FC50E7684A644F23789246644A88
:102C0000984691463A003B780026474690460FE0AA
:102C10004A461268730194466344002B66D0DB6811
:102C200038009847434601361B78F6B2B3423ED38C
:102C3000B342EDD8F31A5B015344F0E7564A534FC1
:102C400023789246524A984691463A003B780026AD
:102C5000474690460FE04A46126873019446634423
:102C6000002B1FD0DB6838009847434601361B789D
:102C7000F6B2B34205D39E42EDD3F31A5B0153443F
:102C8000F0E7414E542200213000FFF71FFA1022D6
:102C9000FF21301DFFF71AFA30002022FF211430E7
:102CA000FFF714FA00F0CCFBFDF73EFCF4E6364EDD
:102CB000542200213000FFF709FA1022FF21301DB5
:102CC000FFF704FA30002022FF211430FFF7FEF94D
:102CD00000F0B6FB2379B370DEE693420ED009B064
:102CE000F0BCBB46B246A946A046F0BD264EEFE773
:102CF00062792078A36800F0C1FBCDE6264B14E78B
:102D0000264800F0A7FB0121300006AAFFF72AFEA3
:102D1000002800D0C0E649E7202A00D141E1002A7E
:102D200000D043E76379092B00D93FE71C4A9B0099
:102D3000D3589F467023217A0B4200D036E77F2775
:102D4000CB0999460F40104B7F001048DB194B44CC
:102D50001B7D0078834256D300D03EE10E4B98464F
:102D6000002A00D13EE14346586900F073FB434618
:102D7000012130005B6906AA9847C9E7A41000202A
:102D80004C1500201C400010F4140020901B002063
:102D90004C140020921B0020C44000106529001034
:102DA00040400010237A0F2B00D9FFE6D54A944605
:102DB000D54A63441B791278934231D300D0F5E6AB
:102DC000D24F786900F046FB012130007B6906AAEA
:102DD0009847002800D05FE66022170023791F4043
:102DE0001A4200D0E2E663790A3B012B00D9DDE606
:102DF00000F030FB63790A2B00D14CE1300006A9CA
:102E000000F0A8FA48E6C2485B0100688046984492
:102E1000002A00D1E6E04346002B00D1C6E6A2E737
:102E2000BB4A5B011768FF18002F00D1BEE6C8E758
:102E3000A3799846B34B5B789845DFD0B14B5B786C
:102E4000002B00D04AE14246AE4B5A70002A00D116
:102E500041E140460138C0B2FDF7B0FB002800D187
:102E600035E14378022B00D031E10121C27907001E
:102E7000931152110B400A4012015B011343A14A06
:102E80002F311278B3468A4313439E4A0937137091
:102E9000C37882781B021343C31801939C4B994655
:102EA000019BBB4200D851E101227B7890460B2B5D
:102EB00004D1FB7898463B78FF187B78042B00D030
:102EC00005E1019B0026DB1B9BB29A468E4B1B78CB
:102ED00019E04A461268730194466344002B00D1FE
:102EE000F5E05246390058461B699847082803D92F
:102EF0005346834200D3D6E0834B01361B78F6B2AB
:102F0000B34200D2E3E0B342E3D8804AF31A9446D6
:102F10005B016344E5E77B4B03AA5B7830001370E9
:102F200006A9012300F02EFAB6E5E088030AC0B234
:102F30000F2B00D93AE677499A008A58974606A897
:102F400000F08EFA3000A179FFF7CAFB02226D4B28
:102F50001B7813436B4A13709EE5E388012B00D066
:102F600024E60822674B1B789343664A137045E7B3
:102F70000220644B03AA19788B068908DB0F0140F5
:102F80000B4313803000022306A900F0FBF983E510
:102F9000E388012B00D009E608225A4B1B78134323
:102FA000E3E7237A0F2B00D900E6564A94466344A0
:102FB0001F79554B1B789F422AD2554A7B011768CF
:102FC000FF18002F00D1F1E5786900F043FA0121E4
:102FD00030007B6906AA98479AE6002A00D0E5E50A
:102FE0000023984663799A4602239B4653465A46E5
:102FF0009343012B11D05346002B00D0D6E5414B13
:1030000003AADB194B4430331B799B07DB0FB8E76E
:103010009F4200D0CAE53D4FD6E7E388002B12D18E
:103020005346012B26D03C4B1878FFF71FFC02219A
:10303000344BDB194B4430331A790A4301211A719E
:103040001A790A431A714346002B00D124E55869C6
:1030500000F000FA434606AA5B6901213000984758
:10306000002000F0F7F93523264AD35CDB0700D5B2
:1030700012E5C3E6284B1878FFF714FC5946214B9C
:10308000DB194B4430331A798A4351461A711A7945
:103090008A431A71D7E703AA30001770093B06A9C3
:1030A00000F070F9F8E443468246002B00D19CE022
:1030B000BA78D318DBB205E00132D2B20E71934276
:1030C00000D192E00F4989180879FF28F4D0002335
:1030D0000C4A53706AE5FDF727FA8FE630000021AD
:1030E000FFF708FB3000FFF7ABFB00229146084AD0
:1030F000044B93464A469B78034F9A46B1463B7829
:1031000016001BE0F4140020901B0020C4400010A7
:103110004C14002068400010A41000205A46126889
:10312000730194466344002B00D180E0DB6848467D
:10313000984701363B78F6B2B34263D39E42EDD353
:103140003C4AF31A94465B016344EFE75E46FDF7A1
:10315000E3F953E6FFF70EFC021E00D126E530002E
:10316000137806A900F00EF9D2E52189FDF72AFAB5
:10317000021EF4D11AE5022B21D0FFF7FDFB021E3F
:1031800000D113E5D37891781B020B43300006A9D8
:1031900000F0F8F8BCE5FDF709FA8446002800D1F4
:1031A00004E5254B1B789B0702D46389122B0BD8AF
:1031B00012236246300006A900F0E4F8A8E5FDF706
:1031C000FDF9021EDED1F1E403A9080006AB84CBB1
:1031D00084C0082362463000CB8000F0D3F897E526
:1031E000FFF7C6FB021ECDD1E0E4330039005246A2
:1031F000124800F0D3FB124B57441B78B34200D364
:103200004EE664E7542200210B48FEF75FFF0A4BAD
:103210001022FF21181DFEF759FF2022FF21074829
:103220004E46FEF753FF5246034B9A700BE64E464E
:10323000F9E7C046C4400010F4140020081500202F
:10324000901B0020F8B557464E46DE4645460C001A
:10325000E0B516001F00002A3CD0702398461E4B94
:1032600000259B461D4B9A461AE05B461B782000C2
:1032700099465346997800F055FB00281CD0210050
:103280004846FFF753FA002816D0A378DA09012A36
:1032900019D00A9A013513702378E418B54219DA67
:1032A0006378052B08D1E3789B079B0FBB4203D1C2
:1032B0004246A3781A42D8D00020F0BCBB46B246A2
:1032C000A946A046F8BD0B9A013513702378E4187F
:1032D000B542E5DB0120F0E7A4100020F414002043
:1032E000074B080019687F2310B50340C0095B0035
:1032F00034301818034B181800F0ECFA10BDC04613
:1033000048150020F41400207F2070B508400F4CB1
:103310004000CD0924186419303425790020ED07C8
:1033200000D570BD012625790948354300782571FF
:10333000FFF78AFA0028F4D10122237993432371FD
:103340002379033293432371EBE7C046F414002042
:10335000A410002070B50A4E0500300008220C00B1
:10336000FEF7BAFE00237F21F3602278B36091421A
:103370005B412800D90100220023FFF7C5FF70BD83
:1033800058140020F8B5CE46474691462A4E80B5DF
:103390000822070030000D009846FEF79DFE4B46C0
:1033A000B3600023F381EC79A97924020C43231C38
:1033B000444500D943469AB29046B381002C13D0BD
:1033C000002A1FD04B46002B34D0131C082A1FD8CC
:1033D0009BB2984633787F2B20D80021174A43466A
:1033E0003800FFF791FF09E07F222B7838009A42DE
:1033F000644100230022E101FFF786FFC0BCB9460B
:10340000B046F8BD33787F2B11D980210022E6E742
:1034100008239BB2984633787F2BDED9074C42466F
:1034200049462000FEF758FE80212200D7E7002100
:103430000022D4E70020E1E75814002050140020B7
:1034400010B5142200210248FEF740FE10BDC04610
:1034500058140020014B18617047C04658140020D2
:1034600010B5054C010008222000FEF735FE0023B0
:10347000A360E36010BDC04658140020F8B5394C75
:103480001D0023780600DA09C9098A4210D00020FD
:10349000002D00D0F8BD21003000FFF739F9236975
:1034A000002B42D022000321300098470120F1E791
:1034B0007F2B06D8A068002839D02A002A49FEF7B9
:1034C0000BFEA368E28959195219E38892B2E2818E
:1034D000A160934214D0072D12D9A589A81A071C00
:1034E00080B208282FD82378BFB27F2B2DD8002197
:1034F000AA4235D01C4A3B003000FFF705FFC9E760
:103500002369002B05D022000221300098470028B3
:103510000FD07F220021237830009A4249410023B6
:103520000022C901FFF7F0FEB4E70120B2E7002056
:10353000B0E700213000FFF799F930008021FFF754
:1035400095F90120A6E70827CDE7AA4207D0064C47
:103550003A002000FEF7C0FD80212200CBE7802149
:103560000022C8E758140020501400207047C046BD
:10357000012070477047C046F0B583B06D460E001D
:10358000190000232A70040006226B70002926D03F
:10359000A81CFEF7A1FD002C02D0002003B0F0BD56
:1035A000114F00207978FFF79BFE0028F5D00F4CD3
:1035B000002E0ED020000822290026741130FEF7BC
:1035C0008BFD09232200797810320020FFF79CFE42
:1035D000E4E72300103306CD06C30823F2E70021F9
:1035E000A81CFEF773FDD6E7E0140020B0140020FD
:1035F00010B50C2200210248FEF768FD10BDC04640
:10360000E01400200120704710B50C220021024870
:10361000FEF75CFD10BDC046E0140020F0B54B790C
:1036200006000D0083B0032B0AD10879C400241AC8
:103630001234A4B2944203D8194F7B78002B03D0E4
:103640000024200003B0F0BD097869184B78212BC5
:10365000F6D1B9600B780200C9187B1C0193BB1C22
:10366000009330000323FFF7EDFD0028E8D0AB798D
:10367000012B01D1EB79FB700123BB71AB78BA68E8
:103680003B70137AD1791B020B43B978BB800029B8
:10369000D7D0044A102330002032FFF735FED0E7A0
:1036A000E0140020B01400201F23F0B5140012789D
:1036B000060083B01340012B18D1614F20793B786D
:1036C000984213D1602318001040134208D02028DC
:1036D0000CD163780B2B09D85A4A9B00D3589F46CC
:1036E0000125012903D16378062B03D0002528008A
:1036F00003B0F0BDE378212B00D183E0222BF5D17C
:103700000020FCF757FF21000200BB883000FFF7C4
:1037100039FEECE7012912D001250329E7D1A17870
:103720000020B971FFF722FFE1E701250129DED171
:10373000E1780020F971FFF71BFF0028D6D02100A7
:103740003000FFF707FE0125D1E7012965D00125EB
:103750000329CCD1E079A37900021843E278A1785B
:10376000041C102800D91024374BA4B2002907D01C
:10377000012805D91878884202D1013CA4B201334E
:1037800000200094FCF7F2FE0125B0E70125012995
:10379000ADD1012321003000BA1DFFF7F3FDA6E7EC
:1037A00001250129A3D1012321003000FA1DFFF7D3
:1037B000E9FD9CE70125012999D1E379A0791B0254
:1037C0000343E278A178181C102B00D9102080B296
:1037D000002930D0012B2ED901251B4F013839701B
:1037E00080B27B1C00900020FCF7BEFE2D18ABB20F
:1037F000002B00D17AE73A0021003000FFF7C2FD2C
:10380000012574E7BA68002A00D16FE72100300073
:103810001378FFF7B7FD050069E7E379A2791B028A
:103820001343102B00D961E721003000064AFFF74F
:10383000A9FD01255BE7044F00253B00D2E7C04608
:10384000E0140020E4400010B014002070B51F4DBB
:103850000400A87882B0884218D16978814219D0D2
:10386000002A21D11A4E9BB232002032009300214F
:10387000130000200222FCF779FE32001023200002
:10388000A9782032FFF740FD02B070BD6C780020AF
:103890008C42F9D1002A10D10D4900209AB2103182
:1038A000FCF760FE0120EFE7094E02213200002004
:1038B0009BB22032FFF75EFEDFE7054A00200121C0
:1038C0009BB21032FFF756FE0120DDE7E014002026
:1038D000B0140020037870B5DB0704000E00DD0F84
:1038E000002B17D103785B0701D5280070BD01219B
:1038F0003000494200F09CF92378DB07DD0F002BF4
:103900000AD123785B0708D40422237801251343C6
:10391000237002E00025E8E70025300000F070F990
:10392000E3E7C04610B5437904791B0223435B05E6
:103930005A0DC3789B079B0F022B05D0032B15D084
:103940000020012B08D010BD02291CD000204023EC
:1039500093424041C0B2F6E702394B4259410D4B08
:103960009C46614491424041C0B2ECE702394B426F
:103970005941F023002049429B00194040319142B7
:103980004041C0B2DFE7044BD3185A425341D8B28A
:10399000D9E7C046FF03000000FEFFFF8A1870B59C
:1039A000914207D27F264C78052C04D00C78091957
:1039B0008A42F8D870BD34008D782C406400041918
:1039C000ED0963550C7809198A42ECD8F2E7C04634
:1039D00070B5040000690E00002803D0012149429F
:1039E00000F026F925896089A288A9B283B28542B0
:1039F0002CD3CD1AADB2002D2ED0AA4208D29142BE
:103A000031D38B1A9BB263819A4203D89B1A9BB223
:103A10009A42FBD9E28821685204520C5343300089
:103A2000C918FEF759FB618901254B1C9BB2A2887E
:103A3000994214D9002352009B1A9BB220696381DA
:103A4000002801D000F0DCF8280070BD5500ED1A08
:103A50004D19ADB2002DD0D1002563899BB2520023
:103A60009342EBDBE8E789188BB26381CCE7C04671
:103A7000F8B50400C0680E00002803D001214942B7
:103A800000F0D6F8258920896189A288ADB283B279
:103A90008FB2884228D3DB1B9BB29A4209D8E779C0
:103AA000FF0906D1E068002801D000F0A9F838002D
:103AB000F8BD2B00954203D39B1A9BB29342FBD2D5
:103AC000E28821685204520C5343C8183100FEF7B3
:103AD00003FBA2886B1C9BB252009D4209D99B1A22
:103AE0009BB201272381DDE75100C91B5B189BB204
:103AF000D3E79342F5DBF2E710B50400C068002875
:103B000003D00121494200F093F82069002803D036
:103B10000121494200F08CF80023E0686381238191
:103B2000002801D000F06CF82069002801D000F0D6
:103B300067F8012010BDC04610B51920FCF7B2FD92
:103B4000D0238022E1211B0692045A620448054BCF
:103B50000022186049020123FEF72EFD10BDC04669
:103B600000400340881B0020D02380221B069204C3
:103B7000002801D05A6170479A61FCE710B500F047
:103B80008FF801235840C0B210BDC04610B583075E
:103B90000AD00300032102E001330B4205D01A785A
:103BA000002AF9D1181A10BD030019680C4A0D4CEF
:103BB0008A188A4322420FD15968094A04338A1865
:103BC0008A43224208D15968054A04338A188A4335
:103BD0002242F1D000E001331A78002AFBD1E1E75C
:103BE000FFFEFEFE80808080F8B5C0460000000029
:103BF00001B40248844601BC604700BF8D0200202A
:103C000001B40248844601BC604700BFED010020BA
:103C100001B40248844601BC604700BF510F002038
:103C200001B40248844601BC604700BF510F002028
:103C300001B40248844601BC604700BF5D0100201A
:103C400001B40248844601BC604700BF5103002014
:103C500001B40248844601BC604700BFC100002097
:103C600001B40248844601BC604700BF5D0C0020DF
:103C700001B40248844601BC604700BFCD0B002060
:103C800001B40248844601BC604700BF010C00201B
:103C900001B40248844601BC604700BF0D0C0020FF
:103CA00001B40248844601BC604700BFF10E002009
:103CB00001B40248844601BC604700BFA50B002048
:103CC0003519001061190010AD1A0010BD20001048
:103CD0002D1F00102D200010D51900107D19001087
:103CE0009D190010B1190010610D0010B9190010D4
:103CF0002D110010FD18001055080010B102001021
:043D0000F525001095
:103D04003B31313131313131313131313131313195
:103D1400313D323232323333343435353636373757
:103D24003530303030313F0A000000000000000020
:103D3400000000000000000000000000002A002B2A
:103D4400002800000000002800000000000000001F
:103D5400000000000000000000000000000000005F
:103D6400000000290000000000000000002C011EDB
:103D740001340120012101220124003401260127FC
:103D84000125012E0036002D003700380027001EC3
:103D9400001F00200021002200230024002500260B
:103DA400013300330136002E01370138011F0104AD
:103DB40001050106010701080109010A010B010CB3
:103DC400010D010E010F0110011101120113011463
:103DD40001150116011701180119011A011B011C13
:103DE400011D002F003100300123012D0035000496
:103DF40000050006000700080009000A000B000C7B
:103E0400000D000E000F001000110012001300142A
:103E140000150016001700180019001A001B001CDA
:103E2400001D012F013101300135004C4D61672D1A
:103E340054656B00423431364330330009040000CA
:103E440009022200010100A0FA0904000001030193
:103E5400010009211101000122430007058103101B
:103E64000005000012011001000000080108010013
:103E7400000101000301000005010906A1018501FB
:103E8400050719E029E71500250195087501810248
:103E94009501750881010508190129059505750124
:103EA4009102950175039101050719002AFF001578
:103EB4000026FF00950675088100C0000A2A2A2AF8
:103EC4002050414E4943202A2A2A0A000A000000B1
:103ED4004E6F207370696E6C6F636B7320617265D3
:103EE40020617661696C61626C650000486172648E
:103EF4007761726520616C61726D20256420616C4C
:103F0400726561647920636C61696D6564000000A9
:103F140048617264206173736572740052656C65E4
:103F240061736500626F6F74325F77323571303858
:103F340030000000322E312E310000007069636FB2
:103F4400000000006465765F6869645F636F6D708C
:103F54006F73697465000000466562203238203250
:103F64003032350005005250DE65F46840510010CF
:103F7400060052505422A29D5C3F0010060052508D
:103F8400861C0302483F001006005250BBFF3CB69B
:103F9400403F001006005250ABB36053383F00104E
:103FA40006005250E182887F283F001006005250DC
:103FB400D3F07542203F00100D0A0000556E686171
:103FC4006E646C65642049525120307825780A006B
:103FD400657020253032582077617320616C7265DA
:103FE40061647920617661696C61626C65000000CE
:103FF40043616E277420636F6E74696E75652078F3
:10400400666572206F6E20696E61637469766520DF
:104014006570202530325800982A0010F62B0010C5
:104024003C2C0010CE2B0010E02B0010BE2B0010F7
:10403400362B0010E62A0010DA2A0010702F001028
:104044005A2F0010AC2B0010902F0010AC2B001036
:104054003E2F00102A2F0010AC2B0010162F00103A
:10406400302E0010AC2B0010963100107631001069
:104074006A310010AC2B0010AC2B0010543100102E
:1040840076310010AC2B0010AC2B0010AC2B0010C0
:10409400AC2B0010AC2B0010AC2B0010AC2B001080
:1040A400E0310010420D0020420D0020240D0020BC
:1040B400980D00209E0E0020B20E00208C0D0020D2
:1040C40000000000F135001005360010093600101C
:1040D4001D360010A93600104D38001000000000F5
:1040E400EC360010B4370010A03700108C370010E5
:1040F400EC360010EC360010EC360010EC360010F4
:10410400EC3600104A3700102A370010143700101C
:104114004C454400090052500000000214410010B4
:084124000800525012100200C5
:10412C00683F0010743F0010803F00108C3F00105F
:10413C00983F0010A43F0010B03F00101841001031
:04414C0024410010FA
:10415000F0B5C646150000B504001E000268EFF376
:10416000108172B61368002BFCD0BFF35F8F04235D
:10417000E356002B2DDB2268BFF35F8F0020106019
:1041800081F31088D0221206127852B290469A42D9
:1041900003D1002080BCB846F0BD00270BE02368A7
:1041A000BFF35F8F1F6081F310882800310000F09B
:1041B00043FF0028EDD12268EFF3108172B6136837
:1041C000002BFCD0BFF35F8F23797F2BE7D94346C9
:1041D00002E0D0231B061B6823712368BFF35F8FA7
:1041E00000221A6081F310880120D3E7F0B5C6469B
:1041F00000B50D00040000F007FFFA2206000F00D2
:10420000002328000021920000F006FF36184F41DD
:10421000002F2CDBD0231B061B68002598460BE0E3
:104220002368BFF35F8F1D6081F310883000390071
:1042300000F002FF002818D12268EFF3108172B657
:104240001368002BFCD0BFF35F8F23797F2BE7D956
:10425000434623712368BFF35F8F00221A6081F306
:104260001088012080BCB846F0BD0020FAE7012686
:10427000014F7642CEE7C046FFFFFF7F0268EFF3B3
:10428000108172B61368002BFCD0BFF35F8FFF2341
:1042900003710368BFF35F8F00221A6081F31088F7
:1042A00040BF704710B5084C2378002B0AD18023FB
:1042B000064807495B051A68C25004338B42FAD19D
:1042C0000123237010BDC046931B00201016001060
:1042D0000001001010B5024B0133984710BDC046D5
:1042E00010160020034B1A68C0239B009343024A18
:1042F000136070470C8001400C900140054B1A6818
:1043000080239B005340C02292001340024A136056
:104310007047C0460C8001400C9001401423F0B55A
:10432000D6464F4646469A46814618880433C0B55D
:1043300098460E001B8827491400984753460700EB
:104340001888434624491B88984753460500188817
:10435000434622491B8898478046FFF7A3FFB8478A
:10436000A847FFF7CBFF002C1BD0C0212200082755
:10437000022049053D008B6A1D4018420BD0002CDD
:1043800009D0131B0D2B1FD84B461B78013C0B6625
:1043900001239C46E1442300002D0CD11343002B44
:1043A000E8D1FFF79FFFC047FFF794FFE0BCBA4694
:1043B000B146A846F0BD002AF1D00B6E013A337029
:1043C000130001362343EAE7002DD3D0002AD1D0D1
:1043D000F3E7C04649460000455800004643000048
:1043E00000231C4A10B59360D3601B4A00219360E0
:1043F000D3601A4A1A489360D3601A4A9360D36014
:10440000194A9360D360194A9360D360184A936045
:10441000D360184A9360D360174A9360D360174AF9
:104420009360D360164A9360D360164A9360D3605A
:10443000154A9360D360154A9360D360144A936021
:10444000D360F022920000F007FE124B124A1A606D
:1044500010BDC04600001050080010501000105051
:1044600098170020180010502000105028001050FD
:1044700030001050380010504000105048001050CC
:10448000500010505800105060001050680010503C
:10449000700010505C1B002080011050F0B54F469A
:1044A000D6464646C0B5204B84B09F6D002F23D022
:1044B0001E4B00249A46012399461D4B012698461F
:1044C00004E001347600E4B2202C15D03E42F8D04E
:1044D00053469E654B4665086D00A343ED186D017C
:1044E0004544280000F038FC00280BD10134B743C4
:1044F000E4B27600002FE7D104B0E0BCBA46B14682
:10450000A846F0BDEB8AE0210393002301A8AA7816
:10451000C900018001210271437100F03DFC2800B7
:1045200000F0B6FBE2E7C046000011500030115029
:10453000581700209823F0B54646D6464F46CD4A38
:10454000C0B5D55880232C009B02102684B01C4097
:104550001D4273D0C84BC94C9A6AC94B00261A60D9
:104560003B23E35C022B00D1FEE07B23E35C022BC8
:1045700000D11CE1BB23E35C022B00D105E1FB234E
:10458000E35C022B00D163E13C23FF33E35C022BAD
:1045900000D148E17C23FF33E35C022B00D12DE105
:1045A000BC23FF33E35C022B00D112E1FC23FF3379
:1045B000E35C022B00D10DE2B24BE35C022B00D195
:1045C000F4E1B14BE35C022B00D1DBE1AF4BE35CE8
:1045D000022B00D1C2E1AE4BE35C022B00D1A9E17A
:1045E000AC4BE35C022B00D190E1AB4BE35C022BC4
:1045F00000D177E1A94BE35C022B00D15CE1A84B31
:10460000E35C022B00D1FAE1002E08D1A54B1B7808
:10461000002B04D18021A44A90338902D150C022BA
:10462000944B01A89B6C92005B055B0D01218024DB
:104630000280436000F0B0FB9C4EA402EB0600D564
:1046400086E080235B021D4237D01C43002398463E
:1046500002339946964B894E9A46B37E002B17D06B
:104660004B4642469F1A00F0C7FC012800D973E070
:10467000C02200213000920100F010FB300000F059
:1046800007FB00F0B9FC012802D9874B5F661F6663
:104690000123F37043462036012B23D1C02301A808
:1046A000DB00844A038002AB42CA42C3012100F00E
:1046B00073FB80227C4B92021A6580235B011D42B2
:1046C00013D18023DB011D4226D180231B021D4212
:1046D00031D1AC4200D0ACE104B0E0BCBA46B14646
:1046E000A846F0BD01239846B7E700261C43614B5E
:1046F0001E60FFF775FE80236A465B00938016728A
:10470000012101A800F048FB8022674B12031A65C3
:104710008023DB011D42D8D01C43802301A8DB008D
:104720000380012100F038FB10225F4B1A658023C3
:104730001B021D42CDD01C43A02301A8DB00038037
:10474000012100F029FB8022574B12011A65C0E7B6
:10475000FFF7A4FE340074E75346464A1F66536EC3
:104760003B40BB42FBD183E73833E65C002E00D1EF
:10477000FBE60233E25C002A00D1F6E600222000CC
:10478000E254203000F0B2FAEFE6B833E35C002BDD
:1047900000D1F4E6BC22A15C1E00002900D1EEE6A7
:1047A00000232000A354A03000F0A0FAE7E67833FD
:1047B000E35C002B00D1DDE67C22A15C1E00002919
:1047C00000D1D7E600232000A354603000F08EFA19
:1047D000D0E6B933FF33E35C002B00D1E6E6DE22FE
:1047E0005200A15C1E00002900D1DFE6200000235A
:1047F000A130A354FF3000F079FAD7E67933FF33C4
:10480000E35C002B00D1CBE6BE225200A15C1E006F
:10481000002900D1C4E6200000236130A354FF30FA
:1048200000F064FABCE63933FF33E35C002B00D1BF
:10483000B0E69E225200A15C1E00002900D1A9E62C
:10484000200000232130A354FF3000F04FFAA1E6EE
:10485000F833E35C002B00D196E6FC22A15C1E003D
:10486000002900D190E600232000A354E03000F09E
:104870003DFA89E60000115000400540581700201D
:10488000501700203B0200007B020000BB0200002A
:10489000FB0200003B0300007B030000BB030000A1
:1048A000FB030000911B002000301150100002009B
:1048B0000020115000001050604BE35C002B00D131
:1048C0009DE6EF239B00E25C002A00D0A9E05C4B50
:1048D000E35C022B00D0A2E65A4BE35C002B00D035
:1048E00092E09CE6584BE35C002B00D182E6DF228D
:1048F0009200A15C1E00002900D17BE60023A35496
:10490000D8239B00E01800F0F1F973E64F4BE35C0D
:10491000002B00D169E6CF229200A15C1E00002985
:1049200000D162E60023A354C8239B00E01800F0E6
:10493000DDF95AE6464BE35C002B00D150E6BF227E
:104940009200A15C1E00002900D149E60023A35477
:10495000B8239B00E01800F0C9F941E63D4BE35C49
:10496000002B00D137E6AF229200A15C1E00002987
:1049700000D130E60023A354A8239B00E01800F0E8
:10498000B5F928E6344BE35C002B00D11EE69F22EC
:104990009200A15C1E00002900D117E60023A35459
:1049A00098239B00E01800F0A1F90FE62B4BE35C85
:1049B000002B00D105E68F229200A15C1E00002989
:1049C00000D1FEE50023A35488239B00E01800F0EB
:1049D0008DF9F6E5F933FF33E35C002B00D1EBE50D
:1049E000FE225200A15C1E00002900D1E4E5200057
:1049F0000023E130A354FF3000F078F9DCE5114BDF
:104A0000E35C002B00D1FFE5FF239B00E25C002A62
:104A100000D104E60022E2541C3BE01800F066F9E5
:104A2000FDE50022E254E8239B00E01800F05EF967
:104A30004DE721000A48694000F0F6FABA03000089
:104A4000FB030000FA0300007A0300003A030000B1
:104A5000FA020000BA0200007A0200003A020000E6
:104A6000C03F0010F0B5D6464F4646460300C0B5DD
:104A70001C8B808A8A46221C844200D9021C802614
:104A800092B2801ADD7884B2F6009C821643002D23
:104A900002D09026B601164301277D40DD705D7877
:104AA0003000002D41D151468801D9681F698C46DC
:104AB000511E88468444002A32D0614602207C1C64
:104AC0000C1BA042804108244445A441404264425A
:104AD000044238D060463843810734D1151FAD08F1
:104AE000691C89460020002461463D5801340D5060
:104AF0000430A145F8D849468D0061464C1941461D
:104B00007F19481BAA4209D03D782570002805D09E
:104B10007D786570012801D0B878A0701F699C8AE3
:104B20008020BA1800021A613043002C02D1802381
:104B3000DB0118435346002B00D00004E0BCBA460A
:104B4000B146A846F0BD002061463C5C0C540130E3
:104B50008242F9D1E2E7C04682680300F0B51068EE
:104B6000002900D0000C5A788005800D002A08D159
:104B7000DA8A8218DA821A8B824201D900229A825A
:104B8000F0BDDA688901451EAC461C69561800283C
:104B90002ED00131511825000222611A8A42894122
:104BA000354301322A4055426A4149420A4225D0E2
:104BB0006246082A22D900220021051FAD080135CE
:104BC000B7580131A75004328D42F9D86246AD0082
:104BD00076196419571BA84209D032782270002F29
:104BE00005D072786270012F01D0B278A2701C6972
:104BF000DA8A24188218DA821C61BCE70022B15CD0
:104C0000A15401329042FAD11C69F1E710B50400B9
:104C1000836800211B68FFF79FFF63681B685B00C8
:104C200002D5238B834200D010BD01212000FFF765
:104C300093FFF9E7084A0300126C0020920703D49F
:104C40009A78D209012A00D07047D87E02384342B0
:104C50005841C0B2F8E7C0460000115010B5FFF748
:104C6000E9FF00280CD00749074B8C46074A9B6A8E
:104C7000126863449B1A0020C6229A424041C0B287
:104C800010BDC046E0FCFFFF00400540501700206B
:104C900000238376436103617047C04610B5836883
:104CA000002901D01C682140002A12D08024E40091
:104CB000114322420DD01A6822420CD1084A0A4000
:104CC0001A60084A126C920703D40C23033BFDD2EE
:104CD0008368196010BD8178034800F0A5F9C046CB
:104CE000FFFBFFFF00001150D43F0010436870B578
:104CF000002180251E680400FFF7B4FE134B6D01F0
:104D00001B6C05439B070FD5A3785B060FD0104B98
:104D10001E4080239B0533436268002113602000FE
:104D20002A00FFF7BBFF70BDA378DB09EFD0A38A91
:104D3000002BECD001212000FFF794FEA023054AB0
:104D4000DB05324005431343E6E7C046000011503F
:104D5000FFFFFFAFFFFFFFDF70B5857E0400002D72
:104D600013D0FFF753FFA38A002B01D1280070BD99
:104D70002000FFF773FF051E03D0012300252377D2
:104D8000F4E72000FFF7B2FFF0E78178014800F078
:104D90004BF9C046F43F0010F0B5CE46474680B50B
:104DA000437805000E0085B0062B12D86D4A9B0093
:104DB000D3589F4601216C4B1A788A431A701A788F
:104DC00001318A431A7000225A701A7802318A43DC
:104DD0001A70664B1C686269EFF3108172B6136833
:104DE000002BFCD0BFF35F8FA1612000290000F0F1
:104DF000FBF86269A369BFF35F8F0021116083F341
:104E00001088002804D105B0C0BCB946B046F0BD3A
:104E100032006978287800F017F9F4E7544A1378DB
:104E20000133DBB21370D4E7524B534F9946534BC7
:104E3000002498463A780AE04146096863018C46A6
:104E40006344002B08D10134E4B294420FD8A2424B
:104E5000F2D8A31A5B014B44DB69002BF3D028780E
:104E60006968984701343A78E4B29442EFD93E4FEA
:104E70003B785B072AD504223B7801AC93430021A1
:104E8000200008323B7000F0E7F82B7823700523F0
:104E90006370364B1B6898465A69EFF3108172B6FF
:104EA0001368002BFCD0BFF35F8F434640469961E7
:104EB000210000F099F843465A699B69BFF35F8F60
:104EC0000021116083F31088002844D1FB78DB07B0
:104ED00000D498E701AC0C220021200000F0BCF8BF
:104EE0002B782370032363706B6863601F4B1D680E
:104EF0006A69EFF3108172B61368002BFCD0BFF320
:104F00005F8FA9612800210000F06EF86A69AB6923
:104F1000BFF35F8F0021116083F31088002800D158
:104F200071E732006178207800F08EF86BE70E4B65
:104F30001A78D20700D466E704211A780A431A7057
:104F400047E7094B1A78D20700D45CE704211A78A6
:104F50008A431A703DE732006178207800F074F8D7
:104F6000B4E7C046A8400010F41400204C150020FF
:104F7000921B0020C4400010901B00204C14002005
:104F800082B0EFF3108172B6134B1A6880239B0135
:104F90005340C02292011340104A13600023FA22AA
:104FA0000193019B9200934205DA019B0133019327
:104FB000019B9342F9DBD023C0221B069868064B65
:104FC00092011B681340054A136081F31088800723
:104FD000C00F02B07047C0460C8001400C900140E9
:104FE0007047C0460000000001B40248844601BC7E
:104FF000604700BF713A001001B40248844601BC0A
:10500000604700BFE506001001B40248844601BCB9
:10501000604700BF5514001001B40248844601BC2B
:10502000604700BFF91F001001B40248844601BC6C
:10503000604700BFF106001001B40248844601BC7D
:10504000604700BF3513001001B40248844601BC1C
:10505000604700BF6929001001B40248844601BCC2
:10506000604700BFCD20001064000000403E0010EB
:10507000303E001000000000383E0010100000001C
:10508000000000000000010000000000000000001F
:10509000000002000000000000000000000003000B
:1050A00000000000000000000000FF000000000001
:1050B00001B5486801318E460047704609380149FC
:1050C000884701BD9D0C001000000000000000009A
:1050D000000000000000000000000000B0100020F0
:1050E000503300004C3300005433000052330000B2
:1050F0004D5300004D430000533400004334000082
:10510000252400101D2500107124001031250010E9
:1051100000000000000100005015002010000C00ED
:10512000000000000000000000000000000000007F
:1051300000000000FF000000000000000000000070
:04000005100001E9FD
:00000001FF
